:1000000000000320D90400000505000005050000DC
:1000100005050000050500000505000000000000C2
:1000200000000000000000000000000005050000C6
:10003000050500000000000005050000890900001A
:100040000505000005050000050500000505000088
:100050000505000005050000050500000505000078
:100060000505000005050000050500000505000068
:100070000505000005050000050500000505000058
:1003F000050500000505000005050000FFFFFFFFE3
:10040000FFFFFFFFFFFFFFFFFFFFFFFFFEFFFFFFFD
:1004100010B5054C237833B9044B13B10448AFF33E
:1004200000800123237010BD6800FF1F0000000042
:10043000E414000008B5064B1BB106480649AFF3AB
:1004400000800648036813B1054B03B1984708BD07
:1004500000000000E41400006C00FF1F6400FF1F98
:1004600000000000154B002B08BF134B9D46A3F561
:10047000803A00218B460F461348144A121A01F0A5
:1004800023F80F4B002B00D098470E4B002B00D0C9
:1004900098470020002104000D000D48002802D0DC
:1004A0000C48AFF3008000F0E9FF2000290000F0C5
:1004B00019FE00F0CFFF00BF00000800000003207D
:1004C00000000000000000006800FF1F8800FF1F00
:1004D000000000000000000072B600F065FE62B689
:1004E0000549064A064B9A42BEBF51F8040B42F832
:1004F000040BF8E7FFF7B6FF0C1500000000FF1F24
:100500006800FF1FFFF7FEBF80B500AF00F0DEF907
:1005100080BD00BF80B582B000AF786039607B6875
:10052000002B11D03B68002B0ED006E07B685A1CD4
:100530007A601B78184600F0DBF93B685A1E3A6077
:10054000002BF3D1002301E04FF0FF3318460837AA
:10055000BD4680BD80B582B000AF78607B68002B5F
:1005600004D0786800F0DEF9034601E04FF0FF3375
:1005700018460837BD4680BD80B500AF00BF00F00B
:10058000F3F80346002BFAD100F0A6F800F098F833
:1005900000BF00F0E9F80346002BFAD000BF00F0DE
:1005A000E3F80346002BFAD100F07EF800F0B8F82B
:1005B00000F09EF8012000F0D1F900F0C9F8012008
:1005C00000F0CCF900F0B8F8012000F0C7F900F015
:1005D0009BF880BD80B582B000AF0023FB8000F0A7
:1005E000ABF800F0D3F803461B02FB8000F0B0F834
:1005F00000F0A2F800F0CAF803461A46FB8813433D
:10060000FB8000F0A5F8FB8818460837BD4680BD82
:1006100080B483B000AF03463960FB7197F90730AF
:10062000002B0BDA0D49FB7903F00F03043B3A680A
:10063000D2B21201D2B20B441A7609E0084997F9F6
:1006400007303A68D2B21201D2B20B4483F80023C9
:100650000C37BD465DF8047B704700BF00ED00E03D
:1006600000E100E080B582B000AF78607B68013BBC
:10067000B3F1807F01D301230FE00A4B7A68013A7E
:100680005A604FF0FF300F21FFF7C2FF054B0022E9
:100690009A60044B07221A60002318460837BD46AB
:1006A00080BD00BF10E000E080B400AF034B022229
:1006B0009A60BD465DF8047B704700BFC0F00F40F4
:1006C00080B400AF034B02225A60BD465DF8047B44
:1006D000704700BFC0F00F4080B400AF034B04224E
:1006E0005A60BD465DF8047B704700BF00F00F40C4
:1006F00080B400AF034B04229A60BD465DF8047BD2
:10070000704700BF00F00F4080B400AF034B0222DF
:100710005A60BD465DF8047B704700BF00F00F4093
:1007200080B400AF034B02229A60BD465DF8047BA3
:10073000704700BF00F00F4080B400AF034B4FF094
:1007400000725A60BD465DF8047B704700F10F40AF
:1007500080B400AF034B4FF000729A60BD465DF865
:10076000047B704700F10F4080B400AF064B1B695B
:1007700003F00803002B0CBF00230123DBB2184653
:10078000BD465DF8047B7047C0F00F4080B483B075
:1007900000AF0C4B1B6903F03F037B600A4B1B69E6
:1007A00003F440233B603B681B13DAB27B68DBB287
:1007B0001343DBB2DBB218460C37BD465DF8047B51
:1007C000704700BF80F00F4040F00F4080B400AF92
:1007D000034B01225A60BD465DF8047B704700BFA1
:1007E000C0F00F4080B400AF034B01229A60BD46B9
:1007F0005DF8047B704700BFC0F00F4080B400AFCD
:10080000044B044A526942F001025A61BD465DF848
:10081000047B7047C0F00F4080B400AF064B064A1F
:10082000526922F004025A61034B04225A60BD4609
:100830005DF8047B704700BFC0F00F4080B400AF8C
:10084000064B064A526942F004025A61034B0422E5
:100850009A60BD465DF8047B704700BFC0F00F4052
:1008600080B400AF064B064A526922F004025A6176
:10087000034B04225A60BD465DF8047B704700BFFD
:10088000C0F00F4080B400AF064B064A526942F0F8
:1008900004025A61034B04229A60BD465DF8047B52
:1008A000704700BFC0F00F4080B400AF064B1B691B
:1008B00003F00403002B0CBF00230123DBB2184616
:1008C000BD465DF8047B7047C0F00F4080B500AFB7
:1008D000064B00221A6000F08BF900F073F800F06C
:1008E00047F900F05FF80023184680BD8400FF1F21
:1008F00080B483B000AF0346FB7100BF084B1B7987
:10090000DBB2DBB25BB2002BF8DA054BFA79DA71B5
:10091000002318460C37BD465DF8047B704700BFC6
:1009200000A0064080B483B000AF78600A4B1B790A
:10093000DBB203F02003002B06D0074BDB79DAB2E1
:100940007B681A70002301E04FF0FF3318460C3724
:10095000BD465DF8047B704700A0064080B485B0BA
:1009600000AF7860074B1B68FB6000BF054B1A683F
:10097000FB68D21A7B689A42F8D31437BD465DF8FB
:10098000047B70478400FF1F80B400AF044B1B68DA
:100990005A1C034B1A60BD465DF8047B704700BFCC
:1009A0008400FF1F80B500AF044B1A68044BA3FB03
:1009B00002139B091846FFF755FE80BD0000FF1F7C
:1009C000D34D621080B400AF5E495E4B03F5815396
:1009D00018331B6843F4805201F5815318331A60B1
:1009E0005849584B03F5815318331B6843F40052A0
:1009F00001F5815318331A605249524B03F5815364
:100A000018331B6843F4007201F5815318331A60E0
:100A10004C494C4B03F5815318331B6843F48062F7
:100A200001F5815318331A604649464B03F581534B
:100A300018331B6843F4006201F5815318331A60C0
:100A4000414B40F203121A603F4B40F203129A608E
:100A50003D4B40F20312DA603C4B3C4A526922F0B3
:100A600008025A61384B40F203125A60374B374A3A
:100A7000526942F002025A61354B40F203129A6009
:100A8000344B344A526942F004025A61304B40F20E
:100A900003125A602F4B2F4A526942F002025A61E8
:100AA0002D4B40F203121A662C4B2C4A526942F02D
:100AB00080725A61284B40F203125A66274B274A2C
:100AC000526942F000725A61254B4FF480729A6568
:100AD000244B244A526942F480025A61214B4FF45C
:100AE00080025A60204B40F203121A601E4B40F203
:100AF00003125A601C4B40F203129A601A4B40F2E8
:100B00000312DA60184B40F203121A61164B40F2DE
:100B100003125A61154B154A526922F03F025A617D
:100B20000F4B40F203129A640D4B40F20312DA6449
:100B30000C4B0C4A526922F440225A61BD465DF8C2
:100B4000047B70470070044000C00440C0F00F40B8
:100B50000090044000F00F4000D0044000F10F402E
:100B600000A0044040F00F4000B0044080F00F406F
:100B700080B400AF1B491B4B03F5815318331B682E
:100B800043F4806201F5815318331A60164B4FF419
:100B900040721A64144B4FF440725A641149114B5D
:100BA00003F5815314331B6843F4806201F58153CC
:100BB00014331A600D4B03229A720C4B00221A70E8
:100BC0000A4B41225A70094B084A9278D2B222F05D
:100BD0001202D2B29A70054B0C22DA70BD465DF853
:100BE000047B70470070044000A0044000A0064051
:100BF00080B582B000AF7B4B03F5825304334FF0D6
:100C000092721A60784B1B78FB71FB7923F00F030B
:100C1000FB71754BFA791A70734B1B78FB71FB797A
:100C200003F05F03FB71FB7963F07F03FB716E4B95
:100C3000FA791A706D4B6D4A5278D2B222F03C02AA
:100C4000D2B242F02002D2B25A70684B674A127B8D
:100C5000D2B222F00302D2B21A73644B5B78DBB2D9
:100C600003F00403002B07D000BF604B9B79DBB27D
:100C700003F00203002BF8D05C4B5C4A5278D2B2EE
:100C800022F00202D2B25A70584B584A1278D2B2AD
:100C900002F03B02D2B262F07F02D2B21A7000BF01
:100CA000524B9B79DBB203F01C03082BF8D14F4B5E
:100CB0004E4A5279D2B222F04002D2B25A7100BFEB
:100CC0004A4B9B79DBB203F02003002BF8D10023C1
:100CD000BB71BB7943F01303BB71444BBA791A71F2
:100CE000424B424A5279D2B222F01F02D2B242F0B3
:100CF0001802D2B25A713D4B3C4A1279D2B242F03C
:100D00004002D2B21A7100BF384B9B79DBB203F0BC
:100D10004003002BF8D0354B344A5279D2B242F01E
:100D20004002D2B25A7100BF304B9B79DBB203F064
:100D30002003002BF8D02D4B2C4A1278D2B202F0AF
:100D40003F02D2B21A7000BF284B9B79DBB203F08E
:100D50000C039B08032BF7D1244B244A127AD2B2FE
:100D600022F02F02D2B21A72204B204A5278D2B20D
:100D700022F00102D2B25A701C4B1C4A1278D2B235
:100D800022F00302D2B242F00202D2B21A7000BFC5
:100D9000164B9B79DBB203F00103002BF8D1114B0A
:100DA00003F5825304334FF08A721A600D490D4BDC
:100DB00003F5805304331B6823F4403343F480323B
:100DC00001F5805304331A60064B064A126822F478
:100DD000402242F400221A6000F004FA0837BD46AF
:100DE00080BD00BF00700440005006400040064037
:100DF00080B582B000AF00F0CFF80A2000F08AF88A
:100E00000346FB71FB79762B21D10B2000F082F891
:100E10000346FB71FB79732B19D11220802100F05E
:100E2000A1F81120802100F09DF83A20042100F063
:100E300099F81520022100F095F81320E72100F021
:100E400091F86F209F2100F08DF8002301E04FF012
:100E5000FF3318460837BD4680BD00BF80B500AFE0
:100E60001220042100F07EF84020102100F07AF8D2
:100E70001720152100F076F81820032100F072F8F1
:100E80003220002100F06EF81920032100F06AF8EA
:100E90001A207B2100F066F80320002100F062F8A0
:100EA0003E20192100F05EF80C20042100F05AF8D1
:100EB0007220112100F056F8A220022100F052F811
:100EC0007320F12100F04EF870203A2100F04AF82A
:100ED0007120352100F046F8B020842100F042F85E
:100EE0004F20B32100F03EF85020B32100F03AF833
:100EF0005120002100F036F852203D2100F032F858
:100F00005320A72100F02EF85420E42100F02AF805
:100F100080BD00BF80B584B000AF0346FB7100F018
:100F200047F8422000F06AF80120FFF717FDFB792F
:100F3000184600F063F800F04FF80120FFF70EFDAF
:100F400000F036F8432000F059F807F10F03184677
:100F500000F08AF800F040F8FB7B18461037BD46D9
:100F600080BD00BF80B582B000AF02460B46FA716B
:100F7000BB7100F01DF8422000F040F8FB791846E4
:100F800000F03CF8BB79184600F038F800F024F87F
:100F90000837BD4680BD00BF80B500AFFFF772FCCB
:100FA000FFF72CFCFFF738FCFFF710FC80BD00BFFB
:100FB00080B500AFFFF730FCFFF708FC0120FFF71A
:100FC000CDFCFFF73BFC0120FFF7C8FCFFF70AFC54
:100FD0000120FFF7C3FC80BD80B500AFFFF72EFCFA
:100FE000FFF700FC0120FFF7B9FCFFF7EFFB012042
:100FF000FFF7B4FCFFF710FC80BD00BF80B584B0E4
:1010000000AF0346FB710023FB731BE0FB795BB26F
:10101000002B02DAFFF700FC01E0FFF70FFC0120D4
:10102000FFF79CFCFFF7D2FB0120FFF797FCFFF7CF
:10103000D9FB0120FFF792FCFB795B00FB71FB7B86
:101040000133FB73FB7B072BE0D9FFF709FC012081
:10105000FFF784FCFFF7BAFB0120FFF77FFCFFF7E7
:10106000C1FB1037BD4680BD80B584B000AF78604D
:101070000723FB730023BB73FFF7F2FB0120FFF78D
:101080006DFCFFF7A3FB0120FFF768FCFFF70CFCEA
:101090000346002B08D0FB7B012202FA03F3DAB2ED
:1010A000BB7B1343DBB2BB73FFF79CFBFB7B013BBA
:1010B000FB7397F90F30002BE0DAFFF7ADFB01204F
:1010C000FFF74CFCFFF782FB0120FFF747FCFFF71F
:1010D00089FB7B68002B02D07B68BA7B1A701037C3
:1010E000BD4680BD80B58EB000AF00237B63FFF7A7
:1010F0000BFA7B6B012B10D0022B1DD0002B00D0E4
:10110000F7E7FFF775FEF862FB6A002B04D1FFF7E3
:10111000A5FE01237B6346E045E0FB1D1846FFF773
:1011200019FAF862FB6A002B05D1FB79652B02D115
:1011300002237B6337E036E0FFF71EFA00237B864D
:101140002AE000233B861BE0FFF744FA03467B8539
:101150003B8E5B007A8DD2B207F138010B4403F865
:10116000302C3B8E5B0001337A8D120A92B2D2B2E0
:1011700007F138010B4403F8302C3B8E01333B86DA
:101180003B8E0F2BE0D907F1080318462021FFF70B
:10119000C1F97B8E01337B867B8EB3F5965FD0D30E
:1011A00001237B6300BFA4E780B400AF0B4B0B4A65
:1011B000D2F8882042F47002C3F88820084B4CF221
:1011C0002052DA81064B4DF62812DA81044B4FF497
:1011D000E9721A80BD465DF8047B704700ED00E0BF
:1011E0000020054080B483B000AF944B1B78DBB285
:1011F00003F0C003002B40F0D180904B5B79DBB251
:1012000003F04003002B40F0AE808C4B1B78DBB228
:1012100003F00403002B4ED1884B1B7BDBB203F0A1
:101220000303002B02D0012B03D006E0844B7B602C
:1012300006E04FF400437B6002E0824B7B6000BF1E
:101240007E4B5B78DBB203F03003002B23D07B4B6B
:101250001B7BDBB203F00303012B1CD0774B1B7805
:10126000DBB203F03803302B05D0382B07D14FF415
:10127000C0637B800EE04FF4A0637B800AE06F4B7D
:101280001B78DBB203F03803DB08202202FA03F3F9
:101290007B8000BF09E0694B1B78DBB203F03803A9
:1012A000DB08012202FA03F37B807B887A68B2FBB9
:1012B000F3F37B6002E04FF400437B605F4BDB782D
:1012C000DBB203F0E003602B29D0602B06D8202B83
:1012D00017D0402B1CD0002B0CD043E0A02B2CD0DF
:1012E000A02B02D8802B21D03CE0C02B2CD0E02BAF
:1012F00031D037E07A6813469B001344DB017B60F2
:1013000030E07A6813469B0013441B027B6029E09F
:101310007A6813461B019B1ADB017B6022E07A6826
:1013200013469B0013445B027B601BE07B684FF419
:10133000377202FB03F37B6014E07B684FF4B76203
:1013400002FB03F37B600DE07B6840F6950202FB35
:1013500003F37B6006E07B6840F6713202FB03F327
:101360007B6000BF59E0354B1B79DBB203F01F03F4
:101370009BB201337B807B88314AB2FBF3F37B6005
:101380002E4B5B79DBB203F01F039BB218337B80DB
:101390007A887B6802FB03F37B603EE0274B1B7877
:1013A000DBB203F0C003402B1AD1244B5B78DBB2D5
:1013B00003F00103002B03D14FF400437B602CE0CA
:1013C0001E4B1B7ADBB203F00E035B08012202FA0C
:1013D00003F37B807B881C4AB2FBF3F37B601CE049
:1013E000164B1B78DBB203F0C003802B14D1134BD8
:1013F0001B7BDBB203F00303002B02D0012B03D0D5
:1014000006E00F4B7B6006E04FF400437B6002E098
:101410000C4B7B6000BF00E00BE00C4B03F58253EC
:1014200004331B681B0F01337A68B2FBF3F2084BDD
:101430001A600C37BD465DF8047B704700400640DB
:1014400080F0FA02006CDC0200093D0000700440EC
:101450000000FF1F08B5074B044613B10021AFF38E
:101460000080054B1868836A03B19847204600F056
:1014700033F800BF00000000E014000070B50E4B10
:101480000E4DED1AAD1000241E46AC4204D056F8A5
:10149000242090470134F8E700F024F8084D094B68
:1014A000ED1AAD1000241E46AC4204D056F824209C
:1014B00090470134F8E770BD0415000004150000E2
:1014C000081500000415000002440346934202D0B0
:1014D00003F8011BFAE77047FEE700BF4300000076
:1014E0000400FF1FF8B500BFF8BC08BC9E4670475B
:0C14F000F8B500BFF8BC08BC9E46704771
:0814FC0068EFFF7F0100000012
:0415040035040000AA
:0415080011040000CA
:10150C00000040010000000000000000000000008E
:10151C0000000000000000000000000000000000BF
:10152C0000000000DC1400000000000000000000BF
:10153C00000000000000000000000000000000009F
:10154C00000000000000000000000000000000008F
:10155C00000000000000000000000000000000007F
:08156C00000000000000000077
:04000003000004D91C
:00000001FF
